:020000040800F2
:10000000482A002009010008630B0008890A00083B
:10001000610B0008CB010008A51A000800000000D1
:10002000000000000000000000000000AF0F00080A
:10003000AD06000800000000250D00084D16000860
:100040002301000823010008230100082301000800
:1000500023010008230100082301000823010008F0
:1000600023010008230100082301000823010008E0
:1000700023010008230100082301000823010008D0
:1000800023010008230100082301000823010008C0
:10009000A11900082301000823010008230100081A
:1000A00023010008230100082301000823010008A0
:1000B0002301000823010008230100082301000890
:1000C0002301000823010008230100082301000880
:1000D0002301000823010008230100082301000870
:1000E0002301000823010008D5170008DFF80CD011
:1000F00000F02EF800480047251F0008482A00207D
:1001000080F308887047000006488047064800478B
:10011000FEE7FEE7FEE7FEE7FEE7FEE7FEE7FEE7B7
:10012000FEE7FEE751160008ED00000840EA010373
:100130009B0703D009E008C9121F08C0042AFAD29D
:1001400003E011F8013B00F8013B521EF9D2704761
:10015000064C074D06E0E06840F0010394E8070014
:1001600098471034AC42F6D3FFF7C4FF642100086F
:100170008421000870B58C1810F8015B15F0070396
:1001800001D110F8013B2A1106D110F8012B03E030
:1001900010F8016B01F8016B5B1EF9D12B0705D438
:1001A0000023521E0DD401F8013BFAE710F8013B81
:1001B000CB1A921C03E013F8015B01F8015B521E9D
:1001C000F9D5A142D8D3002070BDFEE7C1B2000A24
:1001D00040EA0120704700002DE9F84F0020ADF8FB
:1001E00000004BF6BF7648F280084A4D4A4C40F674
:1001F0008F7ADFF8289148F60F7B494F2FE0088867
:1002000010F00F0089F8000032D007EB8001D1F820
:10021000002CADF80020BDF8002012040BD5D1F859
:10022000002C02EA0A02C1F8002C3E4901EB8000D2
:1002300050F8040C8047BDF8000000060FD599F86F
:10024000000007EB8001D1F8002C02EA0B02C1F894
:10025000002C354901EB800050F8040C80472D48F4
:1002600044300068314908800004C8D4BDE8F88FE4
:1002700028682080208800F030006080208800F40A
:10028000405020802868304080F4005080F02000EA
:1002900040EA080028600888C00617D4296801EAE7
:1002A0000B01296000F004FC28E02188890401D5B5
:1002B00080F400506188C90628D46188890601D578
:1002C00080F0200040EA08002860CFE72868ADF8F9
:1002D0000000BDF80000000506D5296801EA0A0102
:1002E000296000F09FFF09E0BDF800000004B6D5CA
:1002F000286800EA0A00286000F0E0FC28682188ED
:100300003040C904D1D580F48050CEE780F0100091
:10031000D3E70000005C00403A01002028010020E3
:100320000050004064000020480000203E000020F3
:10033000002203E010F8013B1A44D2B2491E89B2F0
:10034000F8D25042C0B27047810008480844D0F843
:10035000001C490409D5D0F8001C48F68F721140E2
:100360004CF280021143C0F8001C7047005000405E
:10037000810008480844D0F8001C490609D5D0F887
:10038000001C48F68F72114048F2C0021143C0F8B9
:10039000001C704700500040810006480844D0F817
:1003A000001C48F68F62114048F280021143C0F8E9
:1003B000001C7047005000402DE9F047DFF8949092
:1003C000254F4FF03008D9F8001001F11005088AC8
:1003D0000E7A08B9042E04D0AC88A04215D80426A1
:1003E00014E01E480178012903D007261020388028
:1003F0002BE01B4A002112681A4B120403EBD23285
:100400005160A7F8008001701FE00226844200D9E5
:100410000446A968204688478246002000F00CFB6D
:1004200001462246504601F03FFB2146002000F0E5
:1004300055FE2888001B2880688820446880A7F81B
:10044000008009494FF440500880D9F80000067236
:10045000BDE8F0872C0100203C0100202401002091
:10046000505C0040006000403A0100202DE9F04758
:10047000224EDFF88C803027346834F8100FA168E2
:10048000A9B100B3A588854200D90546284688470A
:1004900081462088401B208060882844608000209E
:1004A00000F0AAFA01462A46484600F02BFC2088B4
:1004B00048B114494FF4405008800021084600F02C
:1004C0000DFEA8F800702088A188884201D303207F
:1004D00001E020B1052031680872BDE8F08731687D
:1004E00006200872084900200968084A090402EB3E
:1004F000D1314860A8F80070EFE700002C0100201F
:100500003C0100203A010020505C004000600040A7
:10051000F8B55D4C5D4D09262068002729684278B2
:10052000062A05D0AAB1082A4DD00A2A50D06BE07D
:100530000278520668D18078012804D0022804D0BD
:10054000032804D060E0C96956E0096A54E0496AAA
:1005500052E04288B2BBC288022A55D102798ABBD6
:100560000278530601D1838833B102F07F02012A59
:1005700004D0022A0CD047E045493DE08A69407921
:1005800000219047F0B92068807A0028F4D13BE040
:10059000417901F00F0001F070020B063D4901EBBB
:1005A0008001D1F8001C03D5C1F30111090102E05B
:1005B000C1F301310903384B1B78834224D90AB9AE
:1005C0000029D9D120E0007840061DD1334913E03D
:1005D000027802F07F02012A16D1827AA2B1428803
:1005E00092B9027982B9C288012A0DD18A6940790B
:1005F0000021904740B92A4931B120684782816182
:1006000000208847002006E02968206809694078B2
:100610008847032813D021680A8AA2F57F43FF3B4D
:100620000BD002280ED06AB10878000626D5C888FB
:10063000009082420AD9088218E00E72F8BD206844
:100640000672F8BD4FF008000872F8BD0ED2286897
:10065000144B90F82C00824201D21F7006E0B2FBCE
:10066000F0F400FB142008B901201870286890F8F5
:100670002C008882BDE8F840FFF79EBE0320087278
:10068000094900030880F8BD2C010020300100203A
:10069000F513000800500040EC000020891300080A
:1006A000CD130008240100203A010020704700000B
:1006B0001C4810B5B0F80218B0F80028914230D0AC
:1006C000B0F80218B0F80028914205D2B0F800182E
:1006D000B0F80228891A03E0B0F80218C1F50061E9
:1006E0008CB2402C00D94024B0F80218B0F802288F
:1006F0002244A0F80228B0F80228B2F5006F02D315
:100700000022A0F8022808442246C02101F0CCF9BA
:100710002146012000F0E2FCBDE81040012000F07D
:1007200003BD10BD8015002010B50649032001F05F
:100730006FF9C1B2034801F07DF9BDE81040032014
:1007400000F0AABCC82500200149086070470000DD
:100750001404014030B51A4A8379016853B3136811
:100760008B431360111D0B680468A3430B60017970
:1007700011440B68046823430B60114B083319685C
:100780000468A14319601C1D21680568A943216004
:100790004179102905D011440A68006802430A60B3
:1007A00030BD19680268114319602168006801436F
:1007B000216030BD0079104402688A43026030BD78
:1007C0000004014001490320086070471401002023
:1007D00070B505464FF43026304600F059F804282D
:1007E00011D1094C206940F0020020616561206947
:1007F00040F040002061304600F04AF8216941F69F
:10080000FD721140216170BD0020024008490420A2
:10081000CA68D20701D001207047CA68520701D5C3
:1008200002207047C968C906FBD503207047000045
:10083000002002400248016941F0800101617047D7
:1008400000200240F0B506464FF400570D463846EA
:1008500000F01EF804280CD1064C206940F001007D
:1008600020613580384600F013F82169BA1E114026
:100870002161F0BD00200240034802494160034964
:10088000416070472301674500200240AB89EFCDEE
:1008900000B50346FFF7BAFF02E0FFF7B7FF5B1EA4
:1008A000012803D0002B00D1052000BD002BF4D17E
:1008B000FAE7F0B5CC78002204F00F03E40601D586
:1008C0008C7823430C784FF00F0C14F0FF0F4FF08F
:1008D000010E1BD005680E880EFA02F42640A642CF
:1008E00010D196000CFA06F725EA070703FA06F579
:1008F000CE783D43282E02D0482E02D002E044613B
:1009000000E00461521C082AE5D305600A88FF2A2A
:100910001CD94468002202F108060EFA06F50E887A
:100920002E40AE420ED196000CFA06F7BC4303FAF5
:1009300006F7CE783C43282E00D14561CE78482E6C
:1009400000D10561521C082AE5D34460F0BD0000C7
:10095000F0B5144C002801DAE36900E06368450D46
:100960002E0185B2C0F30157B540C0F30342032FF7
:1009700005D0C6020AD503269640B34307E023F00C
:100980007062636823F07063636002E0AB4343F01E
:10099000706201B12A43002801DAE261F0BD6260B1
:1009A000F0BD0000000001400246002092680A42AB
:1009B00000D00120704701617047000008B5012098
:1009C000ADF8000002466946084800F071FA08498F
:1009D000BDF80000074A087001208318D3F8E837F3
:1009E0000B54401CC0B20C28F7D908BD00FF00080A
:1009F0004001002000F0FF1F0549096889B201EBA2
:100A0000C000044901EB4000008980B2704700003B
:100A1000505C0040006000400549096889B201EB64
:100A2000C000044901EB40008089C0F30900704711
:100A3000505C0040006000400449096889B201EB45
:100A4000C000034931F8100080B27047505C00408C
:100A5000006000400A4810B50168001D0468001DD0
:100A6000006808180BD00822064900F04FF8054925
:100A700020460422BDE81040103100F047B810BDF8
:100A8000E8F7FF1F1E000020FEE7000010B5064833
:100A9000064C0121017060698047A189A068BDE80A
:100AA000104001F0F1BA0000580900206415002040
:100AB00010B5134C2068017A022904D0042902D011
:100AC000062905D015E0FFF777FC2068007A11E0D1
:100AD0004178052909D10178490606D1C07800F08E
:100AE0006FFA08480068006A804707480068806815
:100AF0008047082021680872BDE8104000F014B952
:100B00002C0100203401002030010020F0B500232A
:100B10000A24302537261F4610E0B4EB107F02D997
:100B200005EB107C01E006EB107C01F813C001EB33
:100B3000430C00015B1C8CF80170DBB29342ECD3D8
:100B4000F0BD00000448817A044809B1052100E0A5
:100B500001210160704700002826002014010020B8
:100B6000FEE770477047000030B50F23C278017868
:100B70000125F2B1144A126801F1E02102F4E062A9
:100B8000C2F5E062120AC2F10404D3404278A240E6
:100B900084781C401443220181F80024007800F07E
:100BA0001F018D404009800000F1E020C0F8005195
:100BB00030BD01F01F0085404809800000F1E020B1
:100BC000C0F8805130BD00000CED00E070B52F4D35
:100BD000296808784C78420606D000F07F0001288A
:100BE00028D002282BD035E0092C06D0052C07D0C0
:100BF000032C0ED0012C14D02CE000F045FC28E092
:100C0000C8787F282ED8887860BB888850BB887ABF
:100C100027E0C87801281DD18888D8B900F050FC99
:100C200017E0C878012815D1888898B9487A8006D5
:100C30000AD40FE00B2C0DD100F098FC09E0012C38
:100C400002D0032C03D005E000F020FB01E000F00F
:100C500049FC58B10E49204609684969884703286C
:100C600002D018B108200DE009200BE0094A062047
:100C700000211268084B120403EBD2325160074A7C
:100C8000302111802968087270BD00002C010020FD
:100C900030010020505C0040006000403C0100201A
:100CA000054A02EB101300F00F001B780B70105C6C
:100CB0004870002088707047A220000810B50F4CC3
:100CC0002068007A022811D004280FD0032804D00D
:100CD000052802D0072805D008E0FFF7C7FB2068E9
:100CE000007A04E006480068C06880470820216850
:100CF0000872BDE8104000F017B800002C01002079
:100D000030010020064B521C520803EB410105D074
:100D100031F8043B20F8023B521EF9D17047000025
:100D200000600040704700000C4810B590F82C108F
:100D3000002000F079F90A480068007A082802D0FB
:100D4000092809D006E007494FF480500880064979
:100D500010200880002010BD012010BD9C00002044
:100D60002C0100203A0100203C01002010B5012098
:100D700000F034FD0648012101600021054A0160B0
:100D8000031D19604FF4E05111800160002010BD77
:100D9000405C004038010020044A0029D16901D09C
:100DA000014300E08143D161704700000010024020
:100DB000044A0029916901D0014300E08143916117
:100DC00070470000001002400149C1F8D800704788
:100DD000000042422DE9F041214C072800D020704C
:100DE00020781F4D0626052204271E4906280BD20F
:100DF000DFE800F0030C11161E27686810B122709E
:100E0000BDE8F08100F030F82670F9E700F02CF82A
:100E10002770012022E00220607003202070EFE79D
:100E20006078401E607060780028E9D12770E7E79D
:100E3000086880B240F01000086022700A206070DC
:100E4000DEE76078401E607060780028D8D10868BE
:100E500080B220F010000860267000206860CFE7A4
:100E60001C010020405C004010B5064C206880B298
:100E700020F004002060FFF765FE4FF43F40206043
:100E800010BD0000405C004007480068052809D1FB
:100E900006490868401C0860062803D10020086045
:100EA000FFF706BC70470000140100203800002046
:100EB00010B5002305E030F8024B21F813405B1C0D
:100EC0009BB29342F7D310BD2DE9F05FA0F100640F
:100ED000154688468246B4F5803F51D2FFF7CCFCD8
:100EE000A70AC4F34806C6F50074A54200D82C46EC
:100EF000DFF890B04FF0006000EB872081464FF4A0
:100F000000722049FFF7D4FF00204FF6FF7206E081
:100F100033183BF81310914203D1401C80B2A04219
:100F2000F6D3A04224D24846FFF752FC00205A468E
:100F300006E038F810108319401C22F8131080B214
:100F4000A042F6D348464FF400720E4900F01CF858
:100F5000A54211D0281B08EB44080AEB440A0026DE
:100F600085B24FF400747F1CA542C3D82C46C1E75C
:100F7000224641465046E9E7BDE8F05FFFF75ABC1C
:100F8000BDE8F09F640900202DE9F04116460F46A8
:100F90000546002407E037F814102846FFF752FCF6
:100FA000641CA4B2AD1CB442F5D3BDE8F081704717
:100FB000024920F00700086070470000505C0040C4
:100FC000F0B50E490E4E48F68F770D78002148F2A5
:100FD000800C0BE0CAB206EB8203D3F8004C3C4015
:100FE000144344EA0C04C3F8004C491CA942F1D351
:100FF000044940F080000860F0BD0000EC000020D3
:10100000005000404C5C0040054A21F0010112688C
:1010100092B202EBC000034A02EB400081607047CD
:10102000505C0040006000400D4A12683E2992B2B8
:1010300002EBC0000B4A02EB400209D94809C9067D
:1010400001D1401E80B24FF4004141EA802004E00B
:101050004808C90700D0401C80021060704700009B
:10106000505C00400C60004082000A480244D2F804
:10107000000C4BF68F731840CB0401D580F48050E0
:10108000890401D580F4005048F280010843C2F879
:10109000000C704700500040810007480844D0F819
:1010A000001C4BF68F72114081F4405148F28002CF
:1010B0001143C0F8001C704700500040054A21F061
:1010C0000101126892B202EBC000034A42F810100C
:1010D00070470000505C004000600040044A126805
:1010E00092B202EBC000034A02EB4000416070473D
:1010F000505C00400060004082000A480244D2F880
:10110000000C48F6BF731840CB0601D580F01000E4
:10111000890601D580F0200048F280010843C2F81A
:10112000000C704700500040810007480844D0F888
:10113000001C48F6BF72114081F0300148F2800275
:101140001143C0F8001C7047005000408200054861
:101150001044D0F8002C48F68F131A400A43C0F808
:10116000002C7047005000400CB500222648009229
:101170000192016841F4803101604FF4A06301687D
:1011800001F4003101910099491C0091019911B9B4
:1011900000999942F3D10168890333D50121019166
:1011A0001A490A6842F010020A600A6822F0030233
:1011B0000A600A6842F002020A60416841604168C0
:1011C0004160416841F480614160416821F47C11D3
:1011D0004160416841F4E8114160016841F080716B
:1011E000016001688901FCD5416821F0030141607B
:1011F000416841F0020141604168C1F38101022967
:10120000FAD10CBD01920CBD00100240002002403A
:1012100010B50020FFF7D8FD0121BDE81040C8053A
:10122000FFF7BABD70B516480068174D0004C10B32
:1012300014480144098989B200EB41042868017A05
:1012400009290FD02178017061784170A088FEF7DC
:10125000BDFF296848802089FEF7B8FF296888808B
:10126000A089C880286801210172C08828B1FFF7D1
:101270004FF9BDE87040FFF757BDFFF7A7FCF8E74F
:10128000505C0040006000402C0100202DE9F0413E
:1012900038480068017811F07F0102D0022905D09A
:1012A00066E0417A01F0DF0141724EE04188002999
:1012B0005ED10179F1BB4179304D21F080040A06FD
:1012C00005EB84022C4BD2F8002C03D5C2F301129B
:1012D000120102E0C2F3013212031E782346A64235
:1012E00046D93AB3807A28B308064FEA84000ED56F
:1012F0002844D0F8000CC0F30110012821D1184671
:10130000FFF736F820463021FFF7F6FE19E04619C0
:10131000D6F8000CC0F30130012812D14BF68F77BC
:1013200048F28008A4B11846FFF70EF8D6F8000C72
:10133000384000E01CE080F4405040EA0800C6F865
:10134000000C0F480068406980470020BDE8F0812C
:101350000C4890F82C100020FFF766FED5F8000C22
:10136000384080F4405040EA0800C5F8000CE8E737
:101370000220EBE72C010020EC0000200050004090
:10138000340100209C00002010B5074C30B1074804
:1013900000680068804720680A3010BD216801207D
:1013A0000882002010BD00002C0100203401002024
:1013B000054A13685A8A10B1086810447047888833
:1013C000801A1882002070472C01002010B5074CAD
:1013D00030B1074800688068804720680C3010BD35
:1013E000216801200882002010BD00002C0100208F
:1013F00034010020204910B5096860B11F4800225F
:1014000002800A7853060AD002F07F02012A16D021
:10141000022A16D001E002200882002010BD497A7D
:101420008A06027802D542F0020201E002F0FD02D3
:1014300049060270D1B211D401F0FE0110E00F484C
:1014400010BD49790A070B060D4901EB9261D1F8ED
:10145000001C07D5C1F3011106E0017841F001013C
:10146000017003E0C1F301310129F6D0054800689D
:1014700000698047E3E700002C01002026010020DE
:1014800000500040340100200A4810B500680A4AA4
:10149000C1785278914203D882780AB982880AB119
:1014A000022010BD81720548006840688047002016
:1014B00010BD00002C010020EC00002034010020B1
:1014C000064810B50068417A41F020014172044895
:1014D0000068C0698047002010BD00002C0100207A
:1014E0003401002070B51D481D4D0268517921F06E
:1014F000800005EB80000B06D0F8003C21F0800452
:1015000003D5C3F301131B0102E0C3F301331B0333
:10151000144D2D78A54210D9548874B96BB1927AC4
:101520005AB10906D0F8001C48F2800207D548F6E7
:10153000BF73194081F0100106E0022070BD4BF628
:101540008F73194081F480511143C0F8001C064884
:10155000006880698047002070BD00002C010020D9
:1015600000500040EC0000203401002010B50E4C6B
:101570000E4A20681268C1789269407990472168C4
:101580008A7A22B118B9087908B9887808B1022096
:1015900010BD07480068C068804720684179C17263
:1015A000C1780173002010BD2C0100203001002003
:1015B0003401002078B41C4B0020009019681B4AAD
:1015C0008CB21B4902EB8005D5F8005CADB241F846
:1015D0002050401C0828F5D344F48060186040F087
:1015E0000100186020F001041C600F48001D056810
:1015F0006D05FCD54FF6FF350560002051F82050F1
:1016000002EB8006ADB2C6F8005C401C0828F5D39A
:1016100044F008001860186880B240F004001860B8
:1016200078BCFFF7CFB80000405C0040005000409D
:10163000082600204FF0E0210428086903D020F09C
:1016400004000861704740F00400FAE770470000AA
:101650000F4810B5016841F00101016041680D4A71
:101660001140416001680C4A11400160016821F499
:1016700080210160416821F4FE0141604FF41F01A7
:101680008160FFF771FD05494FF00060086010BDF3
:10169000001002400000FFF8FFFFF6FE08ED00E03A
:1016A000044B996018600448C3E9050203481861B7
:1016B0007047000064150020C11600082D170008AF
:1016C00010B5194C2068A168007808702068A168DE
:1016D000407848702068A168807888702068A16888
:1016E000C078C8702068C2784168A068001DFEF705
:1016F0001DFD2068A269C178A068091D9047226875
:10170000A168D2781144091DFF2804D80870206808
:10171000C078401D05E0020A0A7048702068C07851
:10172000801DA08110BD00006415002070B5204C04
:1017300000256068401FB0F5817F01D3012070BD96
:10174000A068C1782068C1706068431A581F1B1FC9
:10175000022801D3022070BDA0684218121D012B7F
:1017600002D0022B02D008E0157806E013784FF67D
:10177000FF7505EA032355781D43A269091D9047AB
:10178000854201D0032070BDA168226809781170DC
:10179000A168226849785170A1682268897891709F
:1017A000A1682268091D516021680881042070BD6C
:1017B0006415002006490020A1F80208A1F80008DD
:1017C00001F60401A1F80208A1F800080120704701
:1017D000801500204FF48020FEF7B6BF7047000050
:1017E00006490548022208600272064A0448C1E917
:1017F0000102006800470000282600202C0100207C
:101800009C000020F00000203EB54FF480242046CC
:10181000FEF79AFF082001948DF8090001248DF845
:101820000A4001A8FEF796FF14208DF800008DF8FD
:10183000014000258DF802508DF803406846FFF7FF
:1018400093F92A208DF800008DF801506846FFF7C3
:101850008BF93EBD2DE9F0414B4D88B0002428683E
:101860004A4E708070884A4F39880840800507D5F5
:101870004FF6FF5028603078401C3070FFF704FBB3
:10188000708839880840000401D5FEF7A5FC7088EF
:1018900039884FF6FF380840400504D5C5F8008068
:1018A0003C4840688047718838880140890402D5E7
:1018B0004DF6FF71296071880140C80405D54EF6C8
:1018C000FF7028600020FFF785FA7088398808408B
:1018D00000050BD53048007810B1FFF76BFE02E031
:1018E0000220FFF777FA4FF2FF702860708839887E
:1018F0000840C00545D54FF6FF6028602248001D0E
:1019000000684FF00003000437D57068401C706019
:101910007068032832D91C48001F016809072DD4BC
:10192000016889B2B1601D496A4601EB8407D7F8A6
:10193000007CBFB242F82470641C082CF5D3B46854
:1019400044F00104B460B468A4B20460B46824F044
:101950000104B460B468A4B2046028684005FCD5F2
:10196000C5F80080002052F8204001EB8005A4B2A9
:10197000C5F8004C401C0828F5D373600720FFF71A
:1019800029FA08B0BDE8F081445C00403C0000202A
:10199000380100209C000020180100200050004069
:1019A000FFF758BF10B5044601210420FFF700FAE5
:1019B0000C49086824B14FF6FD721040086010BD54
:1019C00080B240F0020008600748016821F47F21DE
:1019D0000160016841F44C31016004490020C1F804
:1019E000B00110BD405C00400408014000002142ED
:1019F00005490020086005494FF43F40088002492E
:101A0000091F086000207047445C00403801002036
:101A100070B500F07F060D463046FEF7FDFF044628
:101A20003046FEF7E9FF014622462846FFF76AF9ED
:101A3000204670BDF0B5104BB3F80028B3F802484B
:101A4000521CA24217D000224FF40066154610E047
:101A5000845CB3F80078DC55B3F80048641CA3F844
:101A60000048B3F80048B44201D1A3F80058521C12
:101A700092B28A42ECD3F0BD841D00200849B1F82F
:101A800000288854B1F80008401CA1F80008B1F8FB
:101A90000008B0F5006F02D10020A1F800087047DF
:101AA00080150020FEE70000084B10B5521C5208BC
:101AB00003EB410109D010F8013B521E10F8014B15
:101AC00043EA042321F8043BF5D110BD0060004037
:101AD000104A10B500211268212802D0202807D012
:101AE00016E0107800F07F00212811D10A4908E0A3
:101AF000107800F07F00212800D10849084B2020F1
:101B0000187029B10020916150828847002010BDD3
:101B1000022010BD2C0100203D1B0008B11C000854
:101B2000800000200149FFF743BC00009400002022
:101B30000149FFF73DBC00008C00002008B10448BB
:101B40007047044908200968088200207047000097
:101B5000840000202C01002005490968C978042967
:101B600001D900207047034A02EBC101FFF720BCF6
:101B70002C010020CC00002009B9012801D9022045
:101B8000704700207047000007490968097801F094
:101B90007F01212903D1022803D0222801D002206D
:101BA00070470020704700002C010020334810B51A
:101BB0000068334A00218172D2794272C1720846AC
:101BC000FFF7F6F94FF400710020FFF7BFFA10217C
:101BD0000020FFF791FA40210020FFF715FA80213D
:101BE0000020FFF76BFA0020FEF7D6FB254890F89F
:101BF0002C100020FFF718FA0020FFF74DFA002103
:101C00000120FFF7A3FAC0210120FFF757FA202196
:101C10000120FFF771FA00210120FFF725FA4FF4A8
:101C2000C0610220FFF792FA4FF480710220FFF7A3
:101C300045FA00210220FFF717FA20210220FFF7C2
:101C40005BFA00210320FFF781FA4FF4887103202B
:101C5000FFF7DAF940210320FFF7E6F94FF440518E
:101C60000320FFF701FA00210320FFF745FA0020C7
:101C7000FFF7A6F904490120086010BD2C010020DF
:101C8000C42000089C000020140100200348807A32
:101C9000002802D00249052008607047282600204D
:101CA000140100200149042008607047140100203D
:101CB00008B10448704704490820096808820020D8
:101CC00070470000840000202C01002010B5044C57
:101CD0002078202803D1FFF76DFD0020207010BD73
:101CE000800000207047000010B5FEF7B3FE0548E5
:101CF000002400688472FFF739F8FFF779FE024884
:101D0000046010BD2C0100201401002002E008C86E
:101D1000121F08C1002AFAD170477047002001E065
:101D200001C1121F002AFBD17047000010B56FF0EF
:101D30000400FFF77FFC094809490068B0FBF1F097
:101D40000849C0B200EB40020870C2EBC0104FF669
:101D5000FF7202EAC000488010BD000000000020B1
:101D600000127A00140000200B49498848434FF0C4
:101D7000E021486100238B61086940F0010008619F
:101D80000869C20701D0C003FAD5086920F0010034
:101D900008618B61704700001400002010B50168D5
:101DA0000D4A1140B1F1005F15D141680B4C216023
:101DB0000068FEF7A5F90020421E810001F1E02134
:101DC000C1F88021C1F88022401C0828F5DB20687A
:101DD000BDE81040004710BD0000FE2F1800002095
:101DE0002DE9F047002490460D46074626464FF45D
:101DF0008069DFF848A014E0687815F8021B4A46AD
:101E000041EA00212AF81410641CA4B2944206D1BD
:101E100000240A493846FFF757F807F50067B61C53
:101E2000B6B24645E8D3002C06D022463846BDE877
:101E3000F0470249FFF748B8BDE8F087640D00207D
:101E400070B50D4E4FF4006529463046FEF7ACFDE7
:101E50000A4C40B940F2DC50FFF786FF2946304675
:101E6000FEF7A2FD10B12046FFF798FF04490020BD
:101E7000C1F88C0170BD0000000C01400024000876
:101E80000080214208B501211C20FEF791FF4FF48C
:101E90008070ADF8000048208DF8030069460A48BC
:101EA000FEF707FD4FF44060ADF8000069460748B3
:101EB000FEF7FFFC4FF40040ADF80000694604480F
:101EC000FEF7F7FC08BD000000080140000C0140CF
:101ED0000010014038B501210846FEF769FF0121D5
:101EE0000E48FEF735FD01210820FEF761FF88202E
:101EF000ADF8000010208DF803000320084C8DF889
:101F0000020069462046FEF7D4FC08212046FEF771
:101F100052FD80212046FEF74EFD38BD0002300004
:101F2000000C014000273D463C46B946B846464EA7
:101F3000FFF7D0FFFFF7A6FFFFF7F8FEFFF780FFE0
:101F400000F090F8414A42494248FFF7A9FBDFF808
:101F500000A14FF0000B5046BAF80018F1B3B0F8EA
:101F600000284A454DD1B0F800183B48416000694F
:101F70008047042803D03949FEF792FE3EE0354DF4
:101F80006878012802D005282DD035E0EA781AB10A
:101F9000B8F1000F0BD01EE030494FF00108224687
:101FA0000A313046FFF71CFF0024274E13E02B4870
:101FB00069680A302044FEF7B9F8E8784FF4006207
:101FC0000444944207D3254900240A313046FFF7E0
:101FD00007FF06F5006685F803B000E015E0012074
:101FE000C5F804B007E0FEF7E9FC0D20E8701B48D7
:101FF0000D38686005206870FEF748FDAAF800B843
:1020000001E0B0F800980025A5E73C20FFF7ACFE02
:10201000B8F1010F04D028466D1CB0F57A7F03D9C2
:1020200000250948FFF7BAFE7F1CBFB20A2F92D3E2
:102030000B490027D1F88C0118B10020C1F88C01A0
:1020400089E70120FAE700000024000831030008B6
:10205000841D002058090020641500204D01002037
:102060000080214210B5FFF7D3F8FFF7CDFBFFF753
:10207000B7FB0020FFF796FC6420FFF775FEBDE874
:1020800010400120FFF78EBC30B50D4604460023FA
:1020900004E0E05CFFF7F2FC5B1C9BB2AB42F8D3C0
:1020A00030BD30313233343536373839414243442C
:1020B000454612010002020000408304405700021E
:1020C0000102030109024300020100C032090400B9
:1020D0000001020201000524001001052401000195
:1020E000042402020524060001070582030800FFFC
:1020F00009040100020A0000000705030240000075
:10210000070581024000000403090426035300541C
:10211000004D006900630072006F0065006C00658F
:10212000006300740072006F006E0069006300734A
:10213000003203530054004D00330032002000569B
:1021400000690072007400750061006C002000439B
:10215000004F004D00200050006F007200740020FE
:102160000020000084210008000000204001000041
:10217000740100080C22000840010020082900001A
:102180001C1D00081184A24A0480090102030406F0
:10219000070809141A03531254124D123302213244
:1021A00013B1060C1C08650B040B102907145133DE
:1021B000C201120813B2203308121AC408324313A2
:1021C000E91C1408AD1B1B08CD081AE50413D11A2D
:1021D0001B0889101A79041A31041A25041A5904A3
:1021E0004132401307212A08CD1A0B0832261A3132
:1021F0000829BA221C33201A1A046729741A8D4C34
:0C2200000916A41AA51C41299201240013
:04000005080000ED02
:00000001FF
